:0300000002009F5C
:200008000000E2FBEAF2802C0000E0FBEAF08024E6B50202EBF62200E2B50202EBF22200DE
:20002800E0B50202EBF02230F6E0A88220F5D3EAC6F582228B822230F6E6A88220F5D980EE
:01004800CFE8
:03004C0002004966
:0300490002009022
:20004F007F41E5316009C00712012AD00780F38F307531010FEF24A550E87F4180E475897D
:20006F0020758DFA759850D28ED299E531600512012A80F785309910990280FB7531008064
:17008F00EA75300075310090004F1200C402006D0200A622222222D1
:2000A6007525009000901200C4858224E5242420F98781D0D0D083D082D0F0D0E022858253
:2000C6002B85832C75260075270174FC25264013E5275525600DE52604F526E52725E0F552
:2000E6002780E77404B526047582FF22E5274225752900E526C40354F8F52A858128E52676
:20010600C454F0FF243FF581C02BC02CC029C029C029C029C02AE5262420F8A681852881F8
:2001260085268222C0E0C0F0C082C0D0C083E5242420F8A681E52404F52474FC2524500367
:20014600752400E524700575270180177401B52405752702800D7402B52405752704800359
:20016600752708E527552560CCE5242420F98781D0D0D083D082D0F0D0E022E5247005532D
:2001860025FE80177401B524055325FD800D7402B524055325FB80035325F7E52570028095
:2001A600FEE52404F52474FC25245003752400E524700575270180177401B52405752702CD
:2001C600800D7402B524057527048003752708E527552560CCE5242420F98781D0D0D0837E
:0701E600D082D0F0D0E0222E
:00000001FF
