:040000000201673260
:03000B0002016E81
:200010000000E2FBEAF2802C0000E0FBEAF08024E6B50202EBF62200E2B50202EBF22200D6
:20003000E0B50202EBF02230F6E0A88220F5D3EAC6F582228B822230F6E6A88220F5D980E6
:01005000CFE0
:03007E000200512C
:0300510002014663
:20008100753841C2AFE5326009E53214F532D2AF8004D2AF80EDC2AFE5306009E53014F52E
:2000A10030D2AF8004D2AF80EDE5362433F8A638E53604F5367403B53603753600C2AFE524
:2000C1003004F530D2AFC2AFE53104F531D2AFE53804F538E53824A550A975384180A44391
:2000E1008920758DFA758BFA759850D28ED299C2AFE5316009E53114F531D2AF8004D2AF72
:2001010080EDC2AFE5306009E53014F530D2AF8004D2AF80EDE5372433F98739E53704F500
:20012100377403B53703753700C2AFE53004F530D2AFC2AFE53204F532D2AFC2998539995F
:200141001099AC80FB75332075342075352075360075370075300175310075320390008115
:130161001201E60200E00201A422222222020349020054DD
:200174000524E524B40403752400E524600D146011146015E525540860E622E525540160D4
:20019400DF22E525540260D822E525540460D122C2AF75250075240075890075A802D28CBC
:2001B4009001461201E6858224E524600B14600D14600F852381800D85208180088521812D
:2001D4008003852281D0D0D083D082D0F0D0E0D2AF2285822B85832C30AF05752D01800398
:2001F400752D00C2AFE525FF20E011752600752701752A0085812875813F804FE525FF208C
:20021400E111752601752702752A0885812875814F8038E525FF20E21175260275270475FE
:200234002A1085812875815F8021E525FF20E311752603752708752A1885812875816F8023
:200254000AE52D6002D2AF7582FF22E5274225752900C02BC02CC029C029C029C029C02AFD
:20027400E526700585812080177401B52605858121800D7402B526058581228003858123FA
:20029400852881E52D6002D2AF85268222C2AFC0E0C0F0C082C083C0D0E524600B14600D0D
:2002B40014600F858123800D85812080088581218003858122120174E524600B14600D14E1
:2002D400600F852381800D85208180088521818003852281D0D0D083D082D0F0D0E0D2AF2F
:2002F40022C2AFE52470055325FE80177401B524055325FD800D7402B524055325FB80032D
:200314005325F7E525700280FE120174E524600B14600D14600F852381800D8520818008FD
:200334008521818003852281D0D0D083D082D0F0D0E0D2AF22C0E0C0F0C082C083C0D0E535
:2003540024600B14600D14600F858123800D85812080088581218003858122120174E52430
:20037400600B14600D14600F852381800D85208180088521818003852281D0D0D083D0827F
:05039400D0F0D0E032C2
:20005400C000A88118C0D0B6001B18B610004015B637005010C0E0E65407B406005004E6D5
:0A00740054F8F6D0E0D0D0D00032EE
:00000001FF
