:030000000200AE4D
:200008000000E2FBEAF2802C0000E0FBEAF08024E6B50202EBF62200E2B50202EBF22200DE
:20002800E0B50202EBF02230F6E0A88220F5D3EAC6F582228B822230F6E6A88220F5D980EE
:01004800CFE8
:03004C0002004966
:0300490002009F13
:20004F00753241E531600512013980F7853230753101E53204F532E53224A5500375324180
:20006F0012013980DE758920758DFA758BFA759850D28ED299E531700512013980F7C299E2
:20008F0085309910990280FB75310012013980E575302075310090004F1200D302007402DF
:0600AF0000B5222222220E
:2000B50075250090009F1200D3858224E5242420F98781D0D0D083D082D0F0D0E022858226
:2000D5002B85832C75260075270174FC25264013E5275525600DE52604F526E52725E0F543
:2000F5002780E77404B526047582FF22E5274225752900E526C40354F8F52A858128E52667
:20011500C454F0FF243FF581C02BC02CC029C029C029C029C02AE5262420F8A681852881E9
:2001350085268222C0E0C0F0C082C0D0C083E5242420F8A681E52404F52474FC2524500358
:20015500752400E524700575270180177401B52405752702800D7402B5240575270480034A
:20017500752708E527552560CCE5242420F98781D0D0D083D082D0F0D0E022E5247005531E
:2001950025FE80177401B524055325FD800D7402B524055325FB80035325F7E52570028086
:2001B500FEE52404F52474FC25245003752400E524700575270180177401B52405752702BE
:2001D500800D7402B524057527048003752708E527552560CCE5242420F98781D0D0D0836F
:0701F500D082D0F0D0E0221F
:00000001FF
